:100000006F00C044000000003A0100003C01000005
:1000100000000000000000000000000000000000E0
:1000200000000000000000000000000000000000D0
:100030004A040000000000004A0400000000000024
:100040004A0400004A0400004A0400004A04000078
:100050004A0400004A0400004A0400004A04000068
:100060004A0400004A0400004A0400004A04000058
:100070004A0400004A0400004A0400004A04000048
:100080004A0400004A0400004A0400004A04000038
:100090004A0400004A0400004A0400004A04000028
:0800A0004A040000000000000A
:1000A800511126C022C206C4828282441244A24050
:1000B80031018280634E050263C305042E86AA853A
:1000C8007D5515C285466378B6006356C00006069E
:1000D8008606E36CB6FE014563E4C500918D558D37
:1000E80085820582F5FA82808682C93F2E858282C2
:1000F8003305A0406347B000B305B040C1B7B305AE
:10010800B0408682653F3305A0408282868263C7FD
:100118000500634905005D372E858282B305B0402E
:10012800E35B05FE3305A040513F3305B0408282B2
:10013800000001A0B707EFBE37E700E09387070884
:100148003CC701A0EFF2DFF5130181FC0545EF0084
:10015800006D7924EF00500F05658545130505816D
:1001680002CE02D002D202D402D602D802DA02C8E3
:1001780002CA231C0100EF00E06A6147C147054439
:100188006C08371501403AD2FC8622D01D2E37154F
:100198000140C14791446C08130505803ED222D026
:1001A800E486052637340140C1679387070613059F
:1001B80004C02C103ED42317010223180102EF00BB
:1001C800006F9307F00F130504C00C083ECA26C839
:1001D8008D2D130504C08145EF003000130504C0C0
:1001E8008545EF00007A130504C08545EF000078C7
:1001F800130504C08545EF000072930700003EC058
:10020800896703A447CB896783A787CB3EC29245FA
:100218002285EF00307FA2856353050E2285EF000B
:10022800F00AA285EF108007AA852285EF00100A40
:10023800896783A507CC2A84EF00D07C634A050030
:10024800896783A547CC2285EF0070726351A002AD
:10025800EF10700393054038553D13054506EF1020
:10026800C06E896783A587CCEF00303C2A8402459D
:10027800A285EF106030896783A5C7CCEF00306F87
:1002880005466343A0000146371501409145130513
:1002980005805D240967832707CD85443EC68245CE
:1002A8002285EF10602D2AC42685EF10006AAA85E2
:1002B80022458504EF00907EB245EF001037824555
:1002C800EF00D0000967832547CDEF00307D09672F
:1002D800832587CDEF00807FEF100062931505011D
:1002E80037350140C181130505C0EF0060735145E2
:1002F800EF0080782D47E394E4FA22C009BF8967AC
:1003080003A5C7CBEF104027AA852AC4EF00007CBD
:10031800A245EF00B078AA852285EF10E02509BF35
:10032800EFF21FD88946B72702403714024094C31A
:100338001C403707FF68C17493E717001CC05C4076
:10034800FD14F98F5CC01C403707D7FE6D17F98F75
:1003580037071000D98F1CC01C403707FCFF7D17DA
:10036800F98F1CC05C40E58F5CC0B7079D001CC4BA
:100378001C4C93E707021CCCB71701409387074032
:1003880098431377F7F098C398431367070898C3FF
:1003980094CB452A5C4037070001B70600025CC0D1
:1003A8005C40E58F5CC05C405CC01C40D98F1CC0C1
:1003B800B71702409843758F75DFD843B7160240C8
:1003C800719BD8C3D84313672700D8C32147DC42A1
:1003D800B18BE39EE7FEB7270240094798C3F1B106
:1003E800371702405C43A146B18B6392D7045C4344
:1003F8003775DC02130505C0B7160240D842B707A7
:1004080000209387070011833D8BBA979C23D8421D
:1004180093F5F70F13770708B357F50011EFEFF2CD
:100428003FC86939370700202328A700BDB93735E9
:100438006E0113050560C9B7370700202328F700A8
:10044800828001A0970100209381C14213818178A5
:10045800172500001305C5A297050020938505BA46
:100468001386818063FAC5008322050023A0550006
:1004780011059105E3EAC5FE138581809385018204
:100488006377B500232005001105E36DB5FE896289
:1004980093820288739002308D4273904280970253
:1004A80000009382A2B593E2320073905230EFF0CD
:1004B8003FE797020000938222C9739012347300B9
:1004C8002030944593F7060113F3F60081C7DC4109
:1004D8003363F30083D2050093F7F20FA9CF0C41E1
:1004E800611122C226C08147930380023D449304D0
:1004F800800405473317F70033F6E2006310C7029C
:100508006397760258C9139627003317C400134718
:10051800F7FF6D8F3316C300B365E60085072147E3
:10052800E399E7FC12440CC1824421018280E39CD8
:1005380096FC18C9C9BF828019C20CC982804CC9EF
:100548008280EFF2FFB5511185451305C00302C043
:1005580002C202C4C12CB7F7FF1F03A74770B70632
:100568005200938606609377F7F06385D70A63E1B4
:10057800F60CB706240093860660638FD71E63EFD8
:10058800F602B706220093860660638ED72463EFCF
:10059800F600C1779387F7F0F98F37072000130724
:1005A8000760639BE7009307900F2DA83707230088
:1005B800130707606383E7203101C5BCB706500005
:1005C800938606606383D71A63E0F604C17793873E
:1005D800F7F07D8FB707400093870760E39EE7FC3D
:1005E8009307900E371401407C808A859307800218
:1005F800130504803EC4F1359307F0077C808A8593
:10060800130504C07D3D4DBF370751001307076030
:10061800E394E7FA93079006371401407C808A85B3
:1006280093078002130504803EC4613DAD47F9B7C6
:100638003707640013070760E387E7F66361F70687
:100648003707620013070760E38CE7F86364F70471
:100658003707530013070760638DE70C37076100FE
:1006680013070760E39AE7F493070008371401407B
:100678007C808A8593078002130504803EC49135E7
:10068800930740078A85130504C07C801D3D9307A6
:10069800800CADA0370763001307076081B73717D1
:1006A8007300130707806386E702636BF700371749
:1006B8007000130707806388E704370771004DB798
:1006C8003717740013070780E398E7EE9307000CC9
:1006D80071BF9307000C371401407C808A8593070B
:1006E8008002130504803EC4E93B930740078A85CE
:1006F800130504C07C80F1339307900C7C808A85B5
:100708003715014001B79307000C371401407C806E
:100718008A8593078002130504803EC45D339307DE
:1007280040078A85130504C07C80613B9307B00CA1
:10073800F1B793079006371401407C808A859307A8
:100748008002130504803EC4AD3BAD478A8513057E
:1007580004C07C80BD339307C0028A8537150140E9
:100768007C8085339307C006A1A09307800C7C800A
:10077800930780023EC461B79307900F3714014076
:100788007C808A8593078002130504803EC4153B4C
:100798009307F0078A85130504C07C801D339307EF
:1007A800900E8A85371501407C80213B9307D0083D
:1007B8007C808A8513050440B1B59307900F3714E0
:1007C80001407C808A8593078002130504803EC41B
:1007D800CD399307F0078A85130504C07C80D5318D
:1007E800930760029DBF9307900F371401407C80E8
:1007F8008A8593078002130504803EC4D931930784
:10080800F0078A85130504C07C80653993070002C8
:100818008A85371501407C806D31B54751BF23ACBF
:10082800A180828099C5371702401C4FC98F1CCF01
:100838008280B7170240984F1345F5FF798D88CF0E
:100848008280B7370140938707C06306F500B70772
:100858000040631DF5021E21BA21C207C18393F728
:10086800F7F8D98FFA2193F7F7CFD98F1EA1DE2198
:100878005EB59E211EB5B7370140938707C0631444
:10088800F5009C251EB985475EA98280B7170040F0
:1008980093870780631CF5001E21BA21C207C18314
:1008A80093F7F7F8D98F1EA1DE215EA582801E314D
:1008B8007D777D17F98F1EB11E315221562D657730
:1008C8001307F7CFF98E9A2103D385004206220732
:1008D800D98E79777D17F98FBA21C206418233679D
:1008E80067003207D98F37370140C207130707C09F
:1008F800C182C183631BE50071777D17718FD22593
:100908001A06518F131607014182FA2152A156ADDA
:1009180038C11EB18280B7370140938707C09DC197
:100928006306F500B70700406317F5001E2193E73B
:1009380017001EA139A0B717004093870780E30767
:10094800F5FE82806306F500B70700406319F500DD
:100958001E21C207C183F99BC207C183D9BFB7173C
:10096800004093870780E31EF5FCDDB783574504F5
:1009780091C52167D98F2312F5048280C607C583E4
:10098800DDBFB7370140938707C09DC16306F500F7
:10099800B70700406317F5001E2193E707081EA15B
:1009A80039A0B717004093870780E307F5FE8280D8
:1009B8006306F500B7070040631AF5001E21C20759
:1009C800C18393F7F7F7C207C183D1BFB7170040B8
:1009D80093870780E31DF5FCD5B7B73701409387A8
:1009E80007C02E876306F500B7070040631DF500B2
:1009F8004E2DFD779387F77FFD8D2207D98DC20590
:100A0800C1814EAD8280B717004093870780631875
:100A1800F5005E21C207C183DD9BDD8D4EA182807A
:100A2800B7370140938707C06306F500B707004052
:100A38006314F5002CC18280B717004093870780A4
:100A48006313F5004EAD8280EFF28FE5B707002003
:100A580003A50701B7157A0093850520EFF00FE687
:100A68001375F50F238FA1809307803E3305F50298
:100A7800239EA1806FF06FE3B7F700E0D843799B1E
:100A8800D8C303D7C1813307A70298CB23A4070093
:100A980098431367170098C3D843058B75DF9843AD
:100AA800799B98C38280B7060020AA8703A54601D0
:100AB80013870182AA9763E9E70013878158636562
:100AC800F70023AAF60082807D55828041113707FE
:100AD80080007D1793D6750126C293547501B377AC
:100AE800A70022C46D8F93F4F40F1354F50106C6C2
:100AF80013F5F60FFD818E070E073386A4406301B8
:100B0800B404635FC00031ED630E07109306F6FF6F
:100B1800638B062A9305F00F630AB616368689A8F2
:100B280061C2330695406399041CFDCB9306F6FF1A
:100B38006385062C1303F00F630866143686E1A25A
:100B4800A2866357C01471C19305F00F6380B41473
:100B5800B70500044D8FED4563D6C51E850726866B
:100B680089A09306F00F6383D412B7060004558F4B
:100B7800ED45854663CDC50093060002918EB316F8
:100B8800D7003356C7003337D000B366E600958FD9
:100B980037070004B3F6E700D5E613F77700268693
:100BA80051C313F7F70091466303D700910737073E
:100BB80000047D8F25CB130516001307F00FA286BE
:100BC800630EE506139767001375F50F2583B2408A
:100BD80022445E05598DFE069244558D410182805E
:100BE8009386140093F6E60F63930614D9E863829C
:100BF800072075CB3385E740B7060004E98E63828A
:100C08000622B307F7402E848DA809CF9305F6FF77
:100C18006383051A1305F00F630AA6062E8625BFFF
:100C28002E84BA871307F00F8D836310E60CC9CFA3
:100C380081461305F00F3707400051BF1305F00F29
:100C4800014771B77D17B3F6E700368536C0EF0068
:100C5800105D82466D15B396A60063409506058D16
:100C680093071500130700021D8F3397E600B3D7CB
:100C7800F6003337E000D98F014613F7770015F3F4
:100C88003DB7639707144DD72E84BA878D8345B730
:100C980029C233069540FDE4C9D79305F6FF638C56
:100CA80005101303F00FE30266FE2E86ED4563D5AB
:100CB800C512930717002A86EDB5B70700FCFD1784
:100CC8003386A440F58F55BFA2861305F00F014760
:100CD800FDBD138614009375E60FCDEDE5E863833B
:100CE8000712631307128D830146A60713D79700CF
:100CF8001375F60FA286E1BD9306F00FE306D5F84B
:100D0800B7060004D58F6D438546634DC30093062F
:100D18000002918EB396D70033D6C700B337D00000
:100D2800B366F600B307D740AA842E8495B5B38678
:100D3800E74037060004758E3DEA81FA8146014591
:100D4800014771B593050002918DB315B70033576C
:100D5800C7003336B000518FBA97370700047D8F2C
:100D6800E30D07E2138614001305F00F0147E300B3
:100D7800A6E6B706007E13D71700FD16858B758F7C
:100D8800D98FE5BD9305F00FE301B5F0B705000471
:100D9800CD8F29BF9305F00FE302B6EA3E9793572C
:100DA800170093F67700E39E06DE8D833DBFB306FA
:100DB800F7402E8459BDBA97370700047D8F09463E
:100DC800854445FBD9BB998F8544D9B3E38F07EA9E
:100DD800E31007E68D83A1BD93050002918DB395BD
:100DE800B700B3D7C7003336B000D18FBA97AA84FB
:100DF800ADB729D72E84BA87FDB5B307F7402E843F
:100E0800854479B3BA87C5B5BA97B7060004FD8E8D
:100E18000146C1DE370700FC7D17F98F05468D8333
:100E2800E9B5AA8701DD8D83C9B51301C1FD9357C3
:100E3800750126CC9316950006D022CE93F7F70FAE
:100E4800AE84A5821357F501E1C31306F00F638240
:100E5800C70C8E0637060004D18E138317F8014499
:100E6800814293D774019395940093F7F70FA58166
:100E7800FD80B5CB1306F00F6383C70A8E053706CE
:100E88000004D18D938717F80145BD433346970079
:100E98003303F34063EE831A971300009383C3E38D
:100EA8000A041E941C409E9782879307F00F0147FF
:100EB8008250724413957701598D7E06E244518D14
:100EC8001301410282808D476389F2008547639D43
:100ED800F20E2A8681470147E1BF01469307F00FCA
:100EE80037074000F1B7D9E913641400B547334612
:100EF8009700E3EC87FA971500009385E5E10A046B
:100F08002E941C40AE978287A1EA11440143854282
:100F180089BF95EE21441303F00F894299B795E1F3
:100F2800136424007514AD4533469700E3E485FA4D
:100F3800171500001305C5E10A042A940C40AA9568
:100F48008285136434009307F00F0D453DBF31448B
:100F58001303F00F8D4231B736853AC236C0EF0021
:100F6800102C82469307B5FF1247B396F6009307F5
:100F7800A0F83383A74001448142E5B52E851AC8FD
:100F880036C616C43AC22EC0EF00702982459307B0
:100F9800B5FF1247B395F5009307A0F8898FA242D1
:100FA800B24642430145D5B5130313F089473A8544
:100FB800E39BF2F02A869307F00F0147D5BD8D47D2
:100FC800E30DF5F02685AE862A869307F307635F5F
:100FD800F00213F7760019C713F7F600914563037B
:100FE800B700910637070008758F19C7B70700F8CB
:100FF800FD17FD8E930703081307E00FE347F7EA91
:1010080013976600258393F7F70F5DB5854599C754
:101018009D8D6D4581470147E34CB5E81307E3090A
:101028003397E6003337E000B3D7B600D98F13F70C
:10103800770019C713F7F70091466303D7009107A4
:10104800370700047D8F630D0710854701478DB56D
:10105800C16793945500FD1713D70401E58F3AC073
:101068003EC263FEB60A3685BA8532C81AC636C489
:10107800EFF0CF849247A24632434246B302F502CC
:101088002A84B6877D13814682453E8532CA36C892
:1010980016C61AC4EFF04F85C246B242931705012F
:1010A800D58F2243524663F85700A6979306F4FF5C
:1010B80063F3970A36848245B38757403E8532CA20
:1010C8001AC83EC6EFE09FFF924782452AC4B30381
:1010D800F502B2473E851EC2EFF00F819243931688
:1010E8000501A2424243524663F17602B387960055
:1010F800B3B5D7001385F2FFBE8699E563F677008E
:10110800F912B386970011A0AA8213170401B386B7
:10111800764033675700B336D000D98E7DB5824507
:1011280093D716003E8532CA1AC836C63EC4EFE0C9
:10113800FFF8B24692475246FE06B302F502424312
:10114800A2472A84C18289B726852A8661B30146C7
:1011580037074000B1BBE3FF57F47914A697A1BF46
:101168009A0713D797008147A1B32685A1B51356CF
:101178007501370780007D1793D675011376F60F32
:101188001303F00FB372A7009357F5016D8F13F592
:10119800F60FFD8163056602630A650005EA09E941
:1011A80039C3639E0204A1C92E85828039E719E2FA
:1011B800E38B02FE6399B7009DCF3E858280639ED4
:1011C80002026305C50205459DE782806DDDE39C4B
:1011D800B7FEE34AC5FEE341A6FEE36657FE0145B6
:1011E800E3ECE2FC8280E39002FE828019E7E39C54
:1011F800B7FC014582807D55828079558280E38ED7
:10120800B7FCD1B713567501370780007D1793D601
:1012180075011376F60F1303F00FB372A7009357F7
:10122800F5016D8F13F5F60FFD8163066602630AFB
:10123800650005EE11E929CB639F0204B9C92E8523
:101248008280094501EB19E2E38A02FE638BB7024B
:101258000545A1E38280639C0202E31BC5FE0945A4
:1012680075FBE397B7FE014582807DD1E392B7FE17
:10127800E340C5FE6347A600E36C57FC0145E3FB6A
:10128800E2FC81CB3E858280E39402FC82800945A2
:1012980082807D558280E381B7FE5DBF011126CA39
:1012A800935475011316950006CE22CC93F4F40FCF
:1012B80025829356F501638704109307F00F63881E
:1012C800F4100E06B70700045D8E938414F80147E6
:1012D800814293D775011394950093F7F70F2580F2
:1012E800FD81E9C71305F00F638FA704938717F8EB
:1012F800370500040E04498C3385970093041500C4
:10130800294326C08147634CE30E33C3B6008946A0
:101318009A8363C9E6047D17854563E7E514638E00
:10132800D70A05471E836391E70681478143F24048
:10133800624413957701336575007E03D2443365A3
:101348006500056182801385F40F49CC93840410ED
:1013580033C3B60026C013673700A9449A8363C411
:10136800E4208D4785463397E6009376075399CE58
:1013780089476384F2068D476384F202968705479E
:1013880032841E83E383E7FA024591A29376072409
:1013980081EA1377870869CBAE832286BE82C9BFEC
:1013A80001439307F00FB703400051B751E026857A
:1013B8009304150013671700294326C08547E35691
:1013C800E3F435A821E611478144854219B715EAA7
:1013D80021479304F00F8942EDBD1E839307F00F58
:1013E8008143B1B7938704103EC013672700294390
:1013F800B9438947E35BE3F02D47E38FE3F8B6830E
:1014080085BF31479304F00F8D42E1B532852EC474
:1014180036C232C0292502469307B5FF9304A0F8C7
:101428009246A2453316F600898C0147814255B58C
:10143800228532C816C63AC42EC236C0CD239307B9
:10144800B5FF3385A4401305A5F82247930415007A
:101458008246294326C03314F4009245B2424246DC
:101468008147E354E3EA61BFC1631387F3FF9356EF
:10147800060193520401798E618FB305C702338741
:10148800E60293D705013386C2023A96B297B3862D
:10149800560263F3E7009E9641667D1633F7C70050
:1014A800F18D42072E971316670013D4070169833D
:1014B800B337C0003694D98F1A045D8CB70700087B
:1014C800E18F91C702459357140005885D8C9307F7
:1014D800F5076350F0041377740019C71377F40005
:1014E80091466303D700110437070008618F19C7B5
:1014F800B70700F8FD177D8C930705081307E00F61
:10150800634AF7049313640093D3930093F7F70F98
:1015180039BD054799C71D8FED4681478143E3C80B
:10152800E6E01305E5093315A400B357E4003337A3
:10153800A000D98F13F7770019C713F7F700914662
:101548006303D7009107370700047D8F01CB8547D8
:101558008143F1BB9307F00F8143D1BB9A0793D323
:1015680097008147E9B33D450143B7034000E300D5
:10157800A7DCAD438D4749B537078000411193D6A5
:1015880075017D17B377A70022C46D8F1354F50139
:1015980026C206C6935475011303F00F13F5F60F10
:1015A80093F4F40FA2868E07FD81131637006303A8
:1015B800650493C515003387A440630FB4006356D0
:1015C800E03035E1630C06149306F7FF638E0628B6
:1015D800630F67023687A9A86355E0306DC9638831
:1015E8006402B70500044D8EED4563DFE5128507FB
:1015F80026878DA8138714F045E693C51500630167
:10160800B40E630A0718638604102E84B2878D838C
:10161800937614001305F00FBDCB81461305F00F28
:10162800B7074000ADA0E38464FEB7060004558EFA
:10163800ED45854663CDE50093060002998EB31605
:10164800D6003356E6003337D000B366E600958FF0
:1016580037070004B3F6E7006391061093F67700A6
:101668002687CDCE93F6F70011466383C60091070F
:10167800B7060004FD8EDDC205071306F00F93764A
:1016880014006308C70C9A071375F70FA583B240B7
:1016980022445E055D8DFE069244558D410182808F
:1016A800E311B4F631C3639F041A1307F00FB5C7EB
:1016B8009305F7FF638705121303F00F6304671A96
:1016C8006D476359B71A930716002A8761BF39C651
:1016D8009305F7FF63870510E30B67F22E8729B799
:1016E80001C7E1D4814725B7138714009375E70F25
:1016F80063940514639704166385071A6315061A1D
:101708008D830147A607A5831375F70F93761400F9
:10171800BDBF1307F00FFDE72E84B2879306F00FC5
:101728008D83E307D7EEF9BF93050002998DB315B2
:10173800B600B335B0003356E6004D8EB297370782
:1017480000047D8F01DF138714001306F00F631266
:10175800C70A1305F00F81471DBF7D177D8F3A8596
:101768003AC0752C02476D15B316A7006349950456
:10177800058D93071500130700021D8F3397E600A8
:101788003337E000B3D7F600D98F014793F67700D7
:10179800E39A06ECF1BD138714001377E70F1DE7F2
:1017A800CDE8E5CF31DE3387C740B7060004F98EB0
:1017B80063880610B307F64001472E84C1BFB707F8
:1017C80000FCFD173387A440F58FC9B73387C7409E
:1017D800B7060004F98ED1E259F3814601458147E5
:1017E8007DB5B297B7060004FD8E09478544E387A7
:1017F80006E63706007E93D617007D16858BF18E98
:10180800D58F69B79306F7FFC1C61303F00F2E846F
:10181800630A6704ED45054763CCD500130700024A
:10182800158F3397E700B3D6D7003337E000558FCD
:10183800B307E640AA8429BD9305F00FE30BB7F080
:101848003E969357160093F67700E39D06E08D8346
:1018580055BD91EFE30306DC4DBB3307F6402E84FC
:10186800FDBD91E7B28765B3918F8544D5B3E30099
:1018780006DA65B3130700020D8F3397E700B3D577
:10188800B700B337E000DD8DB387C500AA8445BD36
:10189800B307F6402E84854465BB21D22E84B287D7
:1018A80085B5B287B1BDB297B7060004FD8E014772
:1018B800D9DE370700FC7D17F98F8D83054799B569
:1018C80009DFBA878D83014735BDE30607ECB30608
:1018D80095403687E38104E437070004D98F2E84C6
:1018E80015BFE30307E0B305954099E02E87C1B320
:1018F80037070004D98FE9B31357750137068000FD
:101908009307F6FF1377F70F9305E007B3F6A700E1
:101918009357F501014563D3E50091C3828093078E
:10192800E0097D55E3CCE7FE93055009B3E7C6000F
:1019380063D7E5001305A7F63395A7008280130542
:101948006009198D33D5A7008280511106C422C2BF
:1019580026C021C11357F541B344A700998CAA8723
:10196800268513D4F7016528AA861305E009B3076D
:10197800D54013076009634BF7022147638BE608DC
:10198800138586FF3397A4002607258313F5F70FE1
:1019980021A0014401450147A2409317F4011244D4
:1019A8005E05598D82445D8D31018280130790094F
:1019B8006344F70415471386B6FF6384E600B394BF
:1019C800C400370600FC7D1693F5740033F7C40095
:1019D80099CDBD889145638CB4001107B705000403
:1019E800F98D91C51305F009718FB307D5401A0712
:1019F800258313F5F70F4DB71387B60115463397AF
:101A0800E400158E33D6C4003337E000B364E60033
:101A18004DBF13979400258313056009B5BFC167AF
:101A28006375F5029337051093C717008E071307E0
:101A380000021D8F3355F500970700009387473440
:101A4800AA9788233305A7408280B7070001637FE0
:101A5800F500C1473355F5009707000093874732D3
:101A6800AA97882341473305A7408280E147335529
:101A7800F500970700009387A730AA978823214786
:101A88003305A7408280511122C217E4FF1F0324A7
:101A9800645E1C5C06C48DEB61458D28B737CDAB01
:101AA80008DC9387E7301CC1B7176DE69387472397
:101AB8005CC1B7E705009387C7EE1CC5AD475EA5B7
:101AC8000547814718C95CC9105CB786954CB7F5BE
:101AD8005158184A5C4A9386D6F29385D542B30585
:101AE800B702A2401244B387D7023305D702AE9794
:101AF8003337D702BA97130715003335A7003E9539
:101B080048CA18CA0605058131018280AA8517E5E9
:101B1800FF1F0325255689A8411126C297E4FF1FF8
:101B28009384C455984022C406C62AC02E8401E76F
:101B38008145892288C00245A285FD54252A63195A
:101B480095007D54B240228522449244410182800E
:101B5800130435007198E30785FEB305A4400245D8
:101B6800112AE31195FEF1BF938735003111F19BDE
:101B780026C406C822C62AC093848700314763F862
:101B8800E406B14463E7B4060245092A1383C18019
:101B9800032703003A843DE40245A685B53F7D57F7
:101BA8002A841383C1806315E50C0324030022876C
:101BB8005DE718400245814522973AC265281247D9
:101BC8006312A70A1C40938534009D8DF199938474
:101BD8008500B14763F3F400B1440245A6852D3F63
:101BE800FD576301F5081C40A6971CC02DA8E3DB30
:101BF80004F80247B1471CC30145C2403244A2441D
:101C0800510182801040058E63480604AD4663FD8D
:101C1800C60204C0B3069400631687022320D300CB
:101C28005C4090C2DCC20245AD281305B40093079E
:101C3800440061993307F540E301F5FC3A94898F34
:101C48001CC065BF54C3E9BF5C40631587002320EF
:101C5800F300D1BF5CC3C1BF228740402DBF3A8487
:101C68005843B9B70247B1471CC33A851D2869B71D
:101C780004C155BF511122C22A842E8523A8018090
:101C880006C4EFE05FE2FD576316F50083A7018104
:101C980091C31CC0A2401244310182801385418146
:101CA80021A01385418111A0828082803333333F84
:101CB8000000003F0000803FCDCC4C3D3333733FE4
:101CC80000007A443333B33E00002041000048430B
:101CD800000048427CF3FFFFD6F1FFFF00F2FFFF50
:101CE800EAF2FFFF00F2FFFF06F2FFFF00F2FFFF3C
:101CF800EAF2FFFFD6F1FFFFD6F1FFFF06F2FFFF82
:101D0800EAF2FFFFD8F2FFFFD8F2FFFFD8F2FFFF99
:101D180006F2FFFF96F1FFFF96F1FFFFC0F1FFFF0C
:101D280034F4FFFFC0F1FFFFC6F1FFFFC0F1FFFF72
:101D380034F4FFFF96F1FFFF96F1FFFFC6F1FFFFB6
:101D480034F4FFFF98F2FFFF98F2FFFF1EF4FFFF45
:101D580088F1FFFF02F4FFFF88F1FFFF1EF4FFFF89
:101D68005EF1FFFF5EF1FFFF02F4FFFF1EF4FFFFCD
:101D78005CF2FFFF5CF2FFFF5CF2FFFF0001020272
:101D8800030303030404040404040404050505050B
:101D980005050505050505050505050506060606E7
:101DA80006060606060606060606060606060606CB
:101DB80006060606060606060606060607070707B7
:101DC800070707070707070707070707070707079B
:101DD800070707070707070707070707070707078B
:101DE800070707070707070707070707070707077B
:101DF8000707070707070707070707070808080867
:101E0800080808080808080808080808080808084A
:101E1800080808080808080808080808080808083A
:101E2800080808080808080808080808080808082A
:101E3800080808080808080808080808080808081A
:101E4800080808080808080808080808080808080A
:101E580008080808080808080808080808080808FA
:101E680008080808080808080808080808080808EA
:0C1E7800080808080808080808080808FE
:101E84000102030405060708010203040506070806
:101E9400006CDC029800002000000000000000003C
:101EA400000000000000000000000000000000002E
:101EB400000000000000000000000000000000001E
:101EC400000000000000000000000000000000000E
:101ED40000000000000000000000000000000000FE
:101EE40000000000000000000000000000000000EE
:101EF40000000000000000001800002000000000A6
:00000001FF
