:100000006F00C04D000000003A0100003C010000FC
:1000100000000000000000000000000000000000E0
:1000200000000000000000000000000000000000D0
:10003000DA04000000000000DA0400000000000004
:10004000DA040000DA040000DA040000DA04000038
:10005000DA040000DA040000DA040000DA04000028
:10006000DA040000DA040000DA040000DA04000018
:10007000DA040000DA040000DA040000DA04000008
:10008000DA040000DA040000DA040000DA040000F8
:10009000DA040000DA040000DA040000DA040000E8
:0800A000DA040000000000007A
:1000A800511126C022C206C4828282441244A24050
:1000B80031018280634E050263C305042E86AA853A
:1000C8007D5515C285466378B6006356C00006069E
:1000D8008606E36CB6FE014563E4C500918D558D37
:1000E80085820582F5FA82808682C93F2E858282C2
:1000F8003305A0406347B000B305B040C1B7B305AE
:10010800B0408682653F3305A0408282868263C7FD
:100118000500634905005D372E858282B305B0402E
:10012800E35B05FE3305A040513F3305B0408282B2
:10013800000001A0B707EFBE37E700E09387070884
:100148003CC701A0EFF2DFF50565130181FD854588
:100158001305058102C602C802CA02CC02CE02D02B
:1001680002D202C002C223140100EF00A07461474A
:10017800C14705446C00371501403ACA7C8622C83D
:10018800C92E371501409144C1476C0013050580FD
:1001980064863ECA22C8752E37340140C1679387EA
:1001A80007062C08130504C03ECC231F01002310AA
:1001B8000102EF00C0789307F00F8A85130504C089
:1001C8003EC226C0EF00E070130504C08145EF0071
:1001D800D009130504C08545EF00B003130504C01A
:1001E8008545EF00B0018545130504C0EF00A07BED
:1001F800130181025DBDEFF2BFEA8D6783A5477FDA
:1002080061112A84EF209013635C0506A28522857C
:10021800EF20E05CA285EF20F01BA285EF20205C98
:100228002A84EF30801311670326078183264781CC
:100238002AC0AE84EF106077634E050011678247CD
:10024800032687818326C7813E85A685EF10C06770
:100258006355A002EF30003793054038453D13053C
:100268004506EF20C050916703A6078283A6478200
:10027800EF00907EEF30C0182A842285210135B521
:100288002285EF30800D9167AA842E842A86AE8657
:1002980003A5878083A5C780EF10D0562A86AE862F
:1002A8002AC22EC0EF00900B124782473A86BE86BC
:1002B800EF10607D2A86AE862685A285EF109054C1
:1002C800EF300014B1BFEFF2BFDD11110545C523B2
:1002D8004522EF007000BD35930700003EC28D67D0
:1002E80083A7877F3EC0916703A7878283A7C782BA
:1002F8003AC43EC602450137AA852AC01245EF20F6
:10030800703BEF3080052246B246EF10E05B0546B1
:100318006343A00001463715014091451305058048
:1003280065241167832747830327078305443ECA4B
:100338003AC892450245EF20F037AA842285EF207B
:100348009074AA852685EF20F008EF300001424618
:10035800D2460504EF0050702ACC1245AE84EF2037
:10036800D07F62472A86AE863A85A685EF00007F51
:10037800EF3000090D678325C77FEF20B0051167AF
:1003880083250780EF20A045EF20D06A931505014B
:1003980037350140C181130505C0EF006071514533
:1003A800EF0080762D47E316E4F882473EC299B7FE
:1003B800EFF21FCF8946B72702403714024094C393
:1003C8001C403707FF68C17493E717001CC05C40E6
:1003D800FD14F98F5CC01C403707D7FE6D17F98FE5
:1003E80037071000D98F1CC01C403707FCFF7D174A
:1003F800F98F1CC05C40E58F5CC0B7079D001CC42A
:100408001C4C93E707021CCCB717014093870740A1
:1004180098431377F7F098C398431367070898C36E
:1004280094CB452A5C4037070001B70600025CC040
:100438005C40E58F5CC05C405CC01C40D98F1CC030
:10044800B71702409843758F75DFD843B716024037
:10045800719BD8C3D84313672700D8C32147DC4210
:10046800B18BE39EE7FEB7270240094798C335B929
:10047800371702405C43A146B18B6392D7045C43B3
:100488003775DC02130505C0B7160240D842B70716
:1004980000209387070011833D8BBA979C23D8428D
:1004A80093F5F70F13770708B357F50011EFEFF23D
:1004B8003FBF2931370700202328A700FDB637356D
:1004C8006E0113050560C9B7370700202328F70018
:1004D800828001A0970100209381C139138181781E
:1004E800173500001305054997050020938505B1C8
:1004F8001386818063FAC5008322050023A0550076
:1005080011059105E3EAC5FE138581809385018273
:100518006377B500232005001105E36DB5FE8962F8
:1005280093820288739002308D42739042809702C2
:1005380000009382A2AC93E2320073905230EFF045
:100548003FE797020000938242D8739012347300F9
:100558002030944593F7060113F3F60081C7DC4178
:100568003363F30083D2050093F7F20FA9CF0C4150
:10057800611122C226C08147930380023D4493043F
:10058800800405473317F70033F6E2006310C7020B
:100598006397760258C9139627003317C400134788
:1005A800F7FF6D8F3316C300B365E6008507214753
:1005B800E399E7FC12440CC1824421018280E39C48
:1005C80096FC18C9C9BF828019C20CC982804CC95F
:1005D8008280EFF2FFAC511185451305C00302C0BC
:1005E80002C202C4C12CB7F7FF1F03A74770B706A2
:1005F8005200938606609377F7F06385D70A63E124
:10060800F60CB706240093860660638FD71E63EF47
:10061800F602B706220093860660638ED72463EF3E
:10062800F600C1779387F7F0F98F37072000130793
:100638000760639BE7009307900F2DA837072300F7
:10064800130707606383E720310185B4B7065000BC
:10065800938606606383D71A63E0F604C1779387AD
:10066800F7F07D8FB707400093870760E39EE7FCAC
:100678009307900E371401407C808A859307800287
:10068800130504803EC4F1359307F0077C808A8502
:10069800130504C07D3D4DBF3707510013070760A0
:1006A800E394E7FA93079006371401407C808A8523
:1006B80093078002130504803EC4613DAD47F9B736
:1006C8003707640013070760E387E7F66361F706F7
:1006D8003707620013070760E38CE7F86364F704E1
:1006E8003707530013070760638DE70C370761006E
:1006F80013070760E39AE7F49307000837140140EB
:100708007C808A8593078002130504803EC4913556
:10071800930740078A85130504C07C801D3D930715
:10072800800CADA0370763001307076081B7371740
:100738007300130707806386E702636BF7003717B8
:100748007000130707806388E704370771004DB707
:100758003717740013070780E398E7EE9307000C38
:1007680071BF9307000C371401407C808A8593077A
:100778008002130504803EC4E93B930740078A853D
:10078800130504C07C80F1339307900C7C808A8524
:100798003715014001B79307000C371401407C80DE
:1007A8008A8593078002130504803EC45D3393074E
:1007B80040078A85130504C07C80613B9307B00C11
:1007C800F1B793079006371401407C808A85930718
:1007D8008002130504803EC4AD3BAD478A851305EE
:1007E80004C07C80BD339307C0028A853715014059
:1007F8007C8085339307C006A1A09307800C7C807A
:10080800930780023EC461B79307900F37140140E5
:100818007C808A8593078002130504803EC4153BBB
:100828009307F0078A85130504C07C801D3393075E
:10083800900E8A85371501407C80213B9307D008AC
:100848007C808A8513050440B1B59307900F37144F
:1008580001407C808A8593078002130504803EC48A
:10086800CD399307F0078A85130504C07C80D531FC
:10087800930760029DBF9307900F371401407C8057
:100888008A8593078002130504803EC4D9319307F3
:10089800F0078A85130504C07C8065399307000238
:1008A8008A85371501407C806D31B54751BF23AC2F
:1008B800A180828099C5371702401C4FC98F1CCF71
:1008C8008280B7170240984F1345F5FF798D88CF7E
:1008D8008280B7370140938707C06306F500B707E2
:1008E8000040631DF5021E21BA21C207C18393F798
:1008F800F7F8D98FFA2193F7F7CFD98F1EA1DE2108
:100908005EB59E211EB5B7370140938707C06314B3
:10091800F5009C251EB985475EA98280B71700405F
:1009280093870780631CF5001E21BA21C207C18383
:1009380093F7F7F8D98F1EA1DE215EA582801E31BC
:100948007D777D17F98F1EB11E315221562D65779F
:100958001307F7CFF98E9A2103D3850042062207A1
:10096800D98E79777D17F98FBA21C206418233670C
:1009780067003207D98F37370140C207130707C00E
:10098800C182C183631BE50071777D17718FD22502
:100998001A06518F131607014182FA2152A156AD4A
:1009A80038C11EB18280B7370140938707C09DC107
:1009B8006306F500B70700406317F5001E2193E7AB
:1009C80017001EA139A0B717004093870780E307D7
:1009D800F5FE82806306F500B70700406319F5004D
:1009E8001E21C207C183F99BC207C183D9BFB717AC
:1009F800004093870780E31EF5FCDDB78357450465
:100A080091C52167D98F2312F5048280C607C58353
:100A1800DDBFB7370140938707C09DC16306F50066
:100A2800B70700406317F5001E2193E707081EA1CA
:100A380039A0B717004093870780E307F5FE828047
:100A48006306F500B7070040631AF5001E21C207C8
:100A5800C18393F7F7F7C207C183D1BFB717004027
:100A680093870780E31DF5FCD5B7B7370140938717
:100A780007C02E876306F500B7070040631DF50021
:100A88004E2DFD779387F77FFD8D2207D98DC205FF
:100A9800C1814EAD8280B7170040938707806318E5
:100AA800F5005E21C207C183DD9BDD8D4EA18280EA
:100AB800B7370140938707C06306F500B7070040C2
:100AC8006314F5002CC18280B71700409387078014
:100AD8006313F5004EAD8280EFF28FDCB70700207C
:100AE80003A50701B7157A0093850520EFF00FDD00
:100AF8001375F50F238FA1809307803E3305F50208
:100B0800239EA1806FF06FDAB7F700E0D843799B96
:100B1800D8C303D7C1813307A70298CB23A4070002
:100B280098431367170098C3D843058B75DF98431C
:100B3800799B98C38280B7060020AA8703A546013F
:100B480013870182AA9763E9E700138781586365D1
:100B5800F70023AAF60082807D558280B70710002F
:100B68003111FD1733F7B70013D34601F58F22C6AD
:100B780013D445019353D5019352D60126C40E07C9
:100B88008E0793D4F5011374F47F1373F37F06C8AB
:100B9800FD8233E7E300B3E7F200931535009312C3
:100BA8003600B30364406383D418635B7010630535
:100BB80003209306F07F630CD45293068003054606
:100BC80063CA7602B7068000D58FFD4663C17644B6
:100BD80093060002B38676403396D70033D5720069
:100BE800B396D200498EB336D000B3D37700558E72
:100BF800330777403386C540B3B5C5000D8FB707B7
:100C08008000B376F70063860624FD177D8F6306A0
:100C1800072A3A8532C23AC0EF20501402471246DA
:100C2800930685FF93070002B385D740B355B600F6
:100C38003317D700D98D3316D60063CD8632818E0F
:100C48008506958F3315F6003357D6003335A00047
:100C5800598DB397F50033E6A70033D7D500014483
:100C68009377760081CF9377F60091466388D70013
:100C78009307460033B6C70032973E86B707800011
:100C8800F98F6389072805049307F07F630DF41A29
:100C9800B70780FFFD17F98F1393D7010D82A607B9
:100CA8003363C300B1831374F47FA68552045D8C4B
:100CB800FE05C240C18D3244A2441A85510182808A
:100CC800638F0310B3038340631604323365B700A0
:100CD800630B05281385F3FF6306054A1304F07FA9
:100CE8006384834493038003054663C8A302AA83ED
:100CF8007D4663407646130500023305754033167A
:100D0800A70033D475003395A500418E3335A00074
:100D1800B3537700498EB38777403386C240B3B266
:100D2800C200338757401A84B684D1BD6358701205
:100D3800631E030EB3E65700638A06221386F3FF89
:100D4800630E06369306F07F6384D346130580034B
:100D580085466347C502B283FD4663C3763A1306E8
:100D6800000233067640B396C70033D57200339637
:100D7800C200C98E3336C000B3D37700D18E1E9718
:100D88003386B600B336D6003697B7078000F98F9A
:100D9800E9C305049307F07F6307F40AB70780FFE8
:100DA800FD17F98F13571600058A518F1396F7010F
:100DB800598E13D717006DB5B3E657006388061A26
:100DC8009386F3FF638B06301306F07F6388C316A0
:100DD800130580030546E34FD5E0B683FDB313033F
:100DE80014001373E37F6310031EB363B70033E388
:100DF8005700631B042A6381033A6305033C338667
:100E0800554033B5C500B303F740B383A340370556
:100E1800800033F5A300630C05403386B240998FF8
:100E2800B3B2C20033875740B6841DBD9306F07F26
:100E38006306D410130680038546E34376F4B706A9
:100E48008000D58F11BFA6851304F07F8147014329
:100E5800B1BD13757600E31805E09DA26382031205
:100E6800B30383406309041C9306F07F6309D32C02
:100E7800130680038546634A7602B7068000558FBD
:100E8800FD4663C3763893060002B386764033D4B2
:100E980075003396D5003315D700B3668500333611
:100EA800C000B3537700D18E9E9733865600B33671
:100EB800D6003387F6001A84C9BD32853AC232C0DB
:100EC800EF20C06993068501FD4702461247E3DB20
:100ED800D7D4930585FFB315B60063C0861833864B
:100EE80086409306160063D4D7360516930700028A
:100EF80033D6C500638AF60093070004958FB3972D
:100F0800F500B337F0005D8E137576000144E31CDD
:100F180005D47DA0135336009317D7019306F07FAD
:100F280033E36700935737006304D402B207B183F1
:100F38001374F47FA6859DBB631003021313350059
:100F48009317D701135333003363F30093573700D4
:100F5800B367F300E38907EE81451304F07FB70711
:100F680008000143A1B396853E87B68413D33500A4
:100F78001E845DB7370780FF7D17158C6D8FCDB147
:100F88009306140013F3E67F6312030EB366B700EB
:100F98006314041E63850624B3E65700638B062496
:100FA80033865500BA97B335B6003387B70037058F
:100FB8008000798D11C5B70780FFFD177D8F054427
:100FC800B285A28365B73386554033B3C500330570
:100FD800F740330565403703800033736500631CB1
:100FE800030A3363A6002A87E31303C28145014439
:100FF80081476DB91305F07F6308A31213058003B9
:101008000546E34C75D037068000518FD5B19386DD
:1010180003FE13060002B3D6D700638AC300130683
:10102800000433067640B397C700B3E2F2003336C4
:101038005000558EC1B6B366B700638F0618138586
:10104800F3FF2DCD9306F07F638BD30E1306800339
:101058008546E34CA6E4AA8325B5B70780FFFD17AC
:10106800ED8F1393D701158C8D83C9B51306F07FC7
:10107800E38BC6DC33855500BA97B335B500AE9718
:1010880005811396F701498E1D8913D717003684F9
:10109800E31B05BC35B73386B240998FB3B2C200A3
:1010A80033875740B684A5B6E39803E86317031857
:1010B80081451304F07FB7070800CDBE338655007D
:1010C800BA97B335B6003387B700B7078000F98FF2
:1010D8000544E38007D80944D1B133865540B307A6
:1010E800F740B3B5C5003387B740054409BE0E05C0
:1010F8000D811313D701336365009357370089BDFA
:10110800938603FE13060002B3D6D700638AC30092
:101118001306000433067640B397C700B3E2F20023
:10112800B3375000DD8EA9B9131336001397D701D2
:10113800135333003363E3008D83B68411BD131357
:1011480036001397D701135333003363E3008D83BD
:1011580001B5138603FE130400023355C7006389E3
:10116800830013060004330676403317C700D98D71
:101178003336B000498E55B6F9D2B3E75700E38F3E
:1011880007DAD9BB3386B240998FB3B2C20033872E
:101198005740B6840544A5B4E30A03E413173600A0
:1011A8001393D7010D833363E3008D83B684BDBBEE
:1011B800931735008D831313D7013363F3009357C7
:1011C800370079B3931735008D831313D701336331
:1011D800F3009357370099BB96853E8741BB13139D
:1011E80036001397D701135333003363E3008D831D
:1011F80035BB131335009317D701135333003363EB
:10120800F300935737001DB3138603FE93060002BD
:101218003356C7006389D30093060004B38676402B
:101228003317D700D98DB336B000D18EBDB933632B
:1012380076001E87E31603D855BB131736001393A1
:10124800D7010D833363E3008D83B68411B393070D
:101258000002958F0145EDBA130181FC13D34501B6
:1012680022D826D6AA871397C50006DA1375F37F06
:10127800368493D4F5019356C700630C05121307FF
:10128800F07F630CE51613D7D7018E06558F13939D
:101298003700B7068000930715C03EC0558F8147B9
:1012A8008145935644011315C40093F6F67F935372
:1012B800C5007D80DDC21305F07F6383A608139502
:1012C80033009352D601B3E2A200138516C0B706C5
:1012D8008000B3E3D200931636000246098E32C06E
:1012E80001453D46B3C28400636DF61A1726000017
:1012F800130646548A07B2979C43B29782871D8F7C
:1013080013068003635FE64C814701460147D250CC
:101318004254D207D18F9396F201D58FB2543A85B1
:10132800BE851301810382809307F07F0146014740
:10133800F9BF81429307F07F370608000147C1BF14
:101348000245B3E6C300130515802AC0639106144D
:1013580093E727008143094569B7B3E6C300638370
:101368000612638E03401E8532CC3ECA2EC83AC68A
:101378001AC41EC2EF20801E930755FFBE869243F3
:1013880022433247C245D2476246F542B382D24031
:10139800930685FFB393D300B3525600B3E37200AC
:1013A800B316D600024632951306353F32C00145C2
:1013B8000DBF33E7F6006DC332C4638D063836853A
:1013C8003EC236C0EF208019824692472246AA853F
:1013D800930255FF7547138385FF33075740B3962C
:1013E800660033D7E700558F339367009307D0C063
:1013F8008D8F3EC0814581476DB533E7F6003DEBE3
:101408009306F07F0143A14736C0894559BDAA8597
:1014180089476385F5488D47E38DF5F08547A282B6
:10142800E384F5EE82479387F73F635CF02813F770
:101438007600631B07443707000133F7E30009CB45
:10144800B70700FFFD17B3F3F30082479387074000
:101458001307E07FE34AF7EC8D821397D3011396C5
:101468009300558F318293F7F77F55B52684BA8359
:101478009A8679BF36879306F07F3E8336C0B14798
:101488008D4505B593E717008143054599BD93E759
:101498003700B2860D45B1B50143914702C0854575
:1014A80009B563E0E32A630C772882471A84BA8473
:1014B800FD173EC001439397830013D707013A866F
:1014C80013D78601D98FB28513978600268516D043
:1014D8001ACE3EC432C23AC8EFE05FBE38849245A5
:1014E8002ACC3AC63307A70226853ACAEFE0DFBFFF
:1014F8005247420593560401C98EE247724382520D
:1015080063F9E600A2451386F7FFAE9663F6B62C9C
:10151800B2879245998E368516D21ACE3ED036CCF1
:10152800EFE0DFB9B247E2469245B384A7022ACA80
:101538003685EFE07FBB420442054180498CD243A7
:101548007243825792526379940022479386F3FF3D
:101558003A94637EE426B6834246C207C1651357B0
:1015680006013ACA058CD244B3E377009387F5FFA6
:101578007D8E93D6030133F7F300B307E60232CC2E
:101588003387E40213D507013386C60232972A97B8
:10159800B38696026373C700AE96C164FD141356F2
:1015A8000701658F4207FD8C3696BA946366C416A8
:1015B8006302C416118CB30493402246333393005C
:1015C800330464406303862A9245228516D41ED2CA
:1015D800EFE0DFAEB24792452AD0B387A702228553
:1015E80013D404013ECEEFE03FB0F2474205498CE8
:1015F80082569253A252637CF40022461387F6FF68
:101608003294636BC4286379F428F91632949245AE
:101618001D8C228516D436D21ED0EFE03FAAB247E1
:1016280092452ACE3387A7022285C204C1803AC6D2
:10163800EFE09FAB32474205C98C724682539256FF
:10164800A25263FCE400A2459307F6FFAE9463E35D
:10165800B42463F1E4247916AE94C2066245524478
:10166800D18E9397060113D60601C183B385A702CD
:10167800998CB307F4023307A60213D50501BA976C
:10168800AA973306C40263F4E70041673A964167B4
:101698007D1713D50701F98FC2076D8F32953E97D5
:1016A80063FDA410A2459387F6FFAE94268663E9EE
:1016B800B41863EBA41E6384A420BE8693E61600C8
:1016C80095B30547E39D07C28247B3D5E300138668
:1016D800E741B397C600B337F0003396C300D18F04
:1016E800B3D6E600DD8E93F7760081CF93F7F60048
:1016F80011476388E70093874600B3B6D700B695CD
:10170800BE86370580006D8D854701460147E31089
:1017180005C031AAE37093EAC247A2459A9733B746
:101728006700B306B70036943E839386F3FF63FBE6
:1017380085086362C412630E8610B683A5BDE3668E
:10174800D3D6935713001314F701935417005D8CE5
:101758007E0395B33E8536C23EC0EF1030609302DB
:101768005501714782479246224693050502E35385
:1017780057C6130785FF3397E700014385B93285BC
:101788003ECC1ECA2EC83AC61AC432C2EF10105D2B
:101798002ACE93065501F142124622433247C245EA
:1017A800D243E24713050502E3D1D2BEF246938243
:1017B80086FFB31356008146F5B6E391A4F0E30320
:1017C80007C6CDB5E39B85F62DD7B683E5B3E3749D
:1017D80094D8F9133A9449B3E3FCE6D2F917AE96D4
:1017E8000DBB7D46E352E6EE0556B307F6401306F9
:1017F8000002B3D7F3006308C70002471307E743A3
:101808003397E300D98EB336D000DD8E13F7760018
:1018180001461DC393F7F600114781456389E70028
:101828009387460033B7D700B335E000BE861396DA
:1018380095001397D50131828D82558F8147C1BCA0
:10184800BE86E31DA6E6C247E30EF7BC93E6160084
:10185800D1BEE3F497EE4247A246F913BA9733B7DD
:10186800E70036973E833A94B1B30246130720C087
:10187800FD569307F63FE346E6E413874600B33682
:10188800D700B693BA8645BE13F7F6001146E304AF
:10189800C7BAE5B73E86D1B3BA8695BBA28293078D
:1018A800F07F01460147A5B44246A245F9169317B1
:1018B800160033B6C7002E9626963EC859B742463C
:1018C800E364E6FEBE8641B713D34501B7071000AF
:1018D800FD172A871373F37F13D546019303F07F0F
:1018E800B3F2B7001375F57FF58FFD81FD826302B2
:1018F800730463057502611122C226C03A84B2845A
:10190800631E030433E7E20021E55D8E29CE3DEB3B
:10191800A9CA12448244368521018280D18FADE361
:1019280063130302B3E2E200639F020099CA36859B
:101938008280B3E2E20063950204630D6502854686
:10194800FDD5FD56EDB7E39CD5FEE5DDAE86C5B702
:1019580061D36396D50091C5AE8665BF21E1854602
:10196800CDD9FD567DB781467DFB1244824436852C
:1019780021018280D18F89E7E393D5FC814645BF59
:10198800F95675B7E39DD5FCE3EB57FCE395F2FCFC
:10199800E3E784FC8146E37E94F675BFE391D5FCCA
:1019A800E34F65FAE352A3FE7DB713D34501B707AA
:1019B8001000FD172A871373F37F13D5460193028E
:1019C800F07FB3F3B7001375F57FF58FFD81FD82C6
:1019D800630F530263025502611122C226C03A8482
:1019E800B2846311030433E7E30039E95D8E39CE2D
:1019F80041EB85EEFD5615A8D18F95E3631C0302D4
:101A0800B3E3E3006398030281EEFD5611A8B3E344
:101A1800E3006396030063116502D18FB9CB894651
:101A2800368582801DE58546F1F512448244368567
:101A3800210182806383D5048546E1F93685828059
:101A48004DDBE392D5FEDDD5AE86C5B7814671DFA5
:101A5800D9BFE39AD5FCE34865FCE346A3FEE3E47B
:101A680077FCE392F3FEE3E084FC8146E37F94FA9B
:101A7800D9BFE393D5FC814665B7C1D9AE864DB7CA
:101A8800E38FD5FC4DB7797113D7450193D7F5018D
:101A980022D426D206D69394C5001377F77F3EC486
:101AA8002A84B180630A07169307F07F6308F71A40
:101AB8008E049357D501C58FB7048000DD8C93132E
:101AC8003500130717C0014302C693D74601139484
:101AD800C60093F7F77FB282318093D5F601E5C34C
:101AE8009306F07F6386D706938717C0BA970E04CC
:101AF8009356D601C18E3EC237048000558C92465B
:101B0800294793123600850636C88147634F671800
:101B180022472D8F3AC0BA860947634F67047D1361
:101B280005466367661C6386E714054736C06399F4
:101B3800E7068147014401478246D207B250C18F68
:101B48002254FE06D58F92543A85BE85456182801F
:101B58009306F77F418E36C263090612A2460566D0
:101B680013060680AD8E329736C0136333002945BD
:101B78003AC8634D65468D470546331666001377A8
:101B8800065315C3324789476305F70E8D47630A25
:101B9800F714BA8736C0054726849E82E38BE7F898
:101BA800C2473EC2C9A493760624F1EA1376860892
:101BB80063000614AE86A28496833EC6E1B7B36777
:101BC800C4006383071063060436228532CC1ACA20
:101BD8001EC82EC23AC0EF10701802479245C24381
:101BE80052436246AA875515F546938287FF898E28
:101BF80033145400B356D600558CB3125600B307AD
:101C0800F7409387D7C03EC2924629478147850649
:101C180036C8E35F67EE51A8B3E3A4006380030A04
:101C280036C232C06387042E2685EF103013024671
:101C380092462A83130755FFF547930383FF998F2D
:101C4800B3947400B357F400DD8CB3137400130716
:101C5800D0C03307674002C6014385BDB3E3A40083
:101C6800639703048947814421431307F07F3EC6E5
:101C7800A9BD36C09307F07F0144014775BD02C076
:101C88009307F07F3704080045BD85669386068074
:101C9800369713632300A9473AC863DA672C814251
:101CA80039478947AD466301D734A246E1BD8D4720
:101CB800AA8331431307F07F3EC601BD854781449F
:101CC800114301473EC611B53AC292461363130049
:101CD8002947850636C8014481428547E35A67E2A9
:101CE800E9B702C09307F07F370408000147A9B598
:101CF80041661307F6FF93D7030113D30201B3F329
:101D0800E30033F7E200B386E3023AC4B385E7029F
:101D180013D50601330773022E972A973385670276
:101D28002AC66374B7002A9632C6C1651386F5FFC2
:101D38003375C700F18E41834205935204013ACAB4
:101D4800718C3307D500338683023ACC16CE33879D
:101D5800870293560601B3837202BA939E96B3879D
:101D6800570263F3E600AE9741659305F5FFB3F2BA
:101D7800B600C182BE9613D70401A247ED8C36D0B7
:101D8800F18DD2462246C202AE9233069602B38342
:101D98005600B3059302B306F70293570601B695AA
:101DA800AE973303E30263F3D7002A9341659306A2
:101DB800F5FFB3F5D700C205F18EAE96C1833306A1
:101DC80094029A97B3058702724413530601B30429
:101DD8009402AE949A943307E40263F3B4002A970A
:101DE800C165FD1533F5B4006D8E4205B2453295D7
:101DF80002569E95B3B255002A96B292AE96969721
:101E0800B3B5B600BE953335A60033B6C20033B4B9
:101E18005700498EB3B7F500C1805D8C2696329481
:101E28003A9462479392960093D775012604B3E2D9
:101E3800E2005D8CB3325000DD82B7070001B3E2E7
:101E4800D200A605E18FB3E2B20091CF93D712007A
:101E580093F212001317F401B3E75700B3E2E70057
:101E6800C24705803EC292479387F73F635AF00402
:101E780013F7720001CF13F7F20091466308D700F9
:101E880013874200B33257001694BA82370700010D
:101E9800618F01CBB70700FFFD177D8C92479387B1
:101EA80007401307E07F634FF70A1317D40193D253
:101EB8003200260433675700318093F7F77FADB9B6
:101EC8000547D5EF92473356E4009387E741B39629
:101ED800F200B336D000B317F400DD8EB3D2E200BF
:101EE800B3E6560093F7760081CF93F7F6001147D3
:101EF8006388E70093874600B3B6D7003696BE8658
:101F0800B7058000F18D854701440147E39605C276
:101F1800D9A0EF10A06413075501F1470246924675
:101F280013030502E3DAE7D061158143B314A40073
:101F380039BB32851ACC1ECA2EC83AC232C0EF103D
:101F4800E061AA86F142550502461247C245D243CE
:101F5800624393870602E3D9A2C8E116814233148B
:101F6800D60071B99307F07F01440147F1B6A24743
:101F780001448142AD8F3EC0BE86894771BE1D8F28
:101F880093068003E3C7E6BAFD46E3DDE6F285562D
:101F9800B387F64093060002B357F4006309D700ED
:101FA80012471307E7433317E400B3E2E200B336FE
:101FB8005000DD8E13F7760001441DC393F7F60039
:101FC800114701466389E7009387460033B7D70076
:101FD8003336E000BE86131496001317D6013180FD
:101FE8008D82558F814789BE3284E9B63D47631794
:101FF800E30002C03704080001473DBE22862D4792
:102008008D474DB1B7071000FD17311133F7B700F1
:102018000E0726C49354D501F58F13D34601D98CE6
:102028001317350022C68E0713D445019353D601E2
:102038003AC006C81373F37F9302F07F1374F47FDA
:10204800FD81FD82B3E7F30013173600630B531AC3
:1020580093C61600B3036440638FD510635770545A
:102068006302031E630A545293068003054663CA3B
:102078007602B7068000D58FFD4663CE764093067C
:102088000002B38676403396D70033557700B316EF
:10209800D700498EB336D000B3D37700558EB384BA
:1020A800744082473386C740B3B7C7009D8CB707D3
:1020B800800033F7F400630C0728FD17FD8C638D4F
:1020C8000428268532C22EC0EF10404982451246A8
:1020D800930685FF930700023385D7403355A60042
:1020E8003397D400598D3316D60063C38630818E5A
:1020F8008506958F3317F600B354D6003337E000C2
:10210800458FB317F50033E6E700B354D500014413
:102118009377760081CF9377F60011476388E700BD
:102128009307460033B6C700B2943E86B7078000CF
:10213800E58F638F072605049307F07F6302F42079
:10214800B70780FFFD17E58F1393D7010D82A60708
:102158003363C300B1831374F47F13F7150052047B
:102168005D8C9317F7015D8CC240A2853244A2446E
:102178001A8551018280635C705C6318031AB3E6A8
:10218800E700638206261386F3FF630C063C63812F
:10219800532C1305800385466347C502B283FD4669
:1021A80063CA76441306000233067640B396C70026
:1021B800335577003316C700C98E3336C000B3D302
:1021C8007700D18E9E9482473386F600B336D600C8
:1021D800B694B7078000E58F638B0716050493074D
:1021E800F07F630FF414B70780FFFD17E58F1357CF
:1021F8001600058A518F1396F701598E93D417004C
:1022080001BFB3E2E70093031480638E0204638086
:10221800D5066382030C6300041C1313360013975E
:10222800D701135333003363E3008D83B685B36757
:10223800F3006387071001471304F07FB70708000E
:10224800014331BFB3E6E700638F06189386F3FFB7
:1022580063890632638E531E130580030546E342E5
:10226800D5E4B68311BD93C61600E394D5FA638806
:102278000318631B04269303F07F8246C58E63848C
:1022880006401385F3FF630E052C9306F07F638DDC
:10229800D3241306800385466347A602FD4663C21E
:1022A800A644024693060002898EB353A600B39251
:1022B800D4003316D6003336C000B3E6720033D5E7
:1022C800A400D18EAA973386E600B336D600B3842D
:1022D800F6001A84FDBD130314001373E37F63141F
:1022E80003189312350033E3E700B3E25400631098
:1022F800042663890234630E03360243B382F44032
:102308003306E3403335C300B382A240370580006B
:1023180033F5A2006305054033066740858F3337E0
:10232800C700B384E740B685E5B3630354121306C8
:1023380080038546E34976E8B7068000D58F85B5E2
:1023480013F715001304F07F8147014309BD137586
:102358007600E31205DCEDA032852EC232C0EF1004
:10236800E01F93068501FD4702469245E3D4D7D680
:1023780061153315A60063C3861833868640930615
:10238800160063DED73A0516930700023356C500D8
:10239800638AF60093070004958FB317F500B337E7
:1023A800F0005D8E137576000144E31605D649A842
:1023B800135336009397D4011307F07F33E3670074
:1023C80093D73400E305E4E6B207B1831374F47FCE
:1023D80013F7150069B39303F07F8245C58DF9EDB6
:1023E800BE843AC0B68582471E8413D33700D9B756
:1023F800370780FF7D17158CB374E50011BB930672
:10240800140013F3E67F6314031013133500B3E6C7
:10241800640015E863880628B3E6E700638E06289B
:102428003306E300A69733376600B384E700370521
:102438008000658D11C5B70780FFFD17FD8C054429
:1024480032C0A2834DB76383062CD98FE39507DE8C
:10245800131335009397D401135333003363F300F8
:1024680093D73400E9B302433385F4403306E3409D
:102478003333C30033056540370380003373650089
:10248800631D030A3363A600AA84E31A03C2014743
:1024980001448147E9B1938603FE13060002B3D6CF
:1024A800D7006389C3001306000433067640B39748
:1024B800C7005D8F3336E000558EE5B61385F3FF10
:1024C800630E05189305F07F6383B320130680031A
:1024D800B685635BA60E05463306C7403337C7008B
:1024E800B384E7401A84E1B6131336001397D70173
:1024F800135333003363E3008D8315BBB70780FFA5
:10250800FD17E98F1393D701158C8D8375BD1306BD
:10251800F07FE387C6E20246A69736843305E600D5
:102528003337C500BA9705811396F701498E1D897F
:1025380093D41700E31105BE21B70246858FB685EF
:102548003306C7403337C700B384E7408DBE639F67
:102558000212631C031C01471304F07FB70708002D
:10256800FDBE8246A69705443386E6003337D6007B
:10257800B384E700B7078000E58FE38A07DC0944E6
:102588009DB18246B387F44005443386E64033B7AD
:10259800C600B384E74021BE0E051393D4010D8114
:1025A8003363A30093D7340059B1E38603D23305CC
:1025B8008340AA83E30304E2130680036346A61854
:1025C80037068000D18CB685FD4663C8A604024450
:1025D80093060002898E3396D400B352A400B31632
:1025E800D40033665600B336D00033D5A400558ED8
:1025F800898FDDB5138603FE9306000233D6C70024
:102608006389D30093060004B3867640B397D70056
:102618005D8FB336E000D18E7DB6930605FE1306B6
:102628000002B3D6D400630AC50013060004098E5D
:1026380002453396C400498E32C002463336C00084
:10264800558E59BDE30503E4131736001393D701DC
:102658000D833363E3008D83B685BDB30246858F52
:10266800B6853306C7403337C700B384E74005440F
:102678003DBC931735008D831393D4013363F30066
:1026880093D7340091B3BE843AC0B1BBE31503BA03
:10269800931735008D831393D4013363F30093D7D5
:1026A800340071B6131336001397D7011353330050
:1026B8003363E3008D8309BB131335009397D4016B
:1026C800135333003363F30093D73400F5B913176A
:1026D80036001393D7010D833363E3008D83B685EA
:1026E800B9B6930605FE9302000233D6D400630AF6
:1026F800550093060004898E0245B396D400C98E0E
:1027080036C08246B336D000D18E75BE1317360058
:102718001393D7010D833363E3008D8309BE3363BD
:1027280056009684E31E03D09DB313173600139307
:10273800D7010D83336367008D83B685CDBC9307BE
:102748000002958F01476DBAB685054671B3E388D7
:1027580003CA3305834019E0AA8305B6130680032C
:102768008546E342A6B6B7068000D58C05BE511152
:1027780006C422C226C015CD1357F5413344A7001D
:10278800198CAA87228593D4F701EF00305D93074F
:10279800E041898F294793F7F77F634BA7022D47BD
:1027A800098F3357E400550532073314A4003183E9
:1027B80029A08144814701470144A2402285D207CC
:1027C8001244FE04D98FC58FBE85824431018280B0
:1027D80055153317A400320731830144F9BF41115D
:1027E800370780007D1793D6750126C2935475016B
:1027F800B377A70022C46D8F93F4F40F1354F50137
:1028080006C613F5F60FFD818E070E073386A44022
:102818006301B404635FC00031ED630E07109306D3
:10282800F6FF638B062A9305F00F630AB616368601
:1028380089A861C2330695406399041CFDCB9306B1
:10284800F6FF6385062C1303F00F630866143686BB
:10285800E1A2A2866357C01471C19305F00F63808B
:10286800B414B70500044D8FED4563D6C51E850722
:10287800268689A09306F00F6383D412B706000456
:10288800558FED45854663CDC50093060002918EB0
:10289800B316D7003356C7003337D000B366E60007
:1028A800958F37070004B3F6E700D5E613F77700EE
:1028B800268651C313F7F70091466303D7009107A3
:1028C800370700047D8F25CB130516001307F00F7B
:1028D800A286630EE506139767001375F50F258327
:1028E800B24022445E05598DFE069244558D410141
:1028F80082809386140093F6E60F63930614D9E852
:102908006382072075CB3385E740B7060004E98E5C
:1029180063820622B307F7402E848DA809CF93055A
:10292800F6FF6383051A1305F00F630AA6062E86C1
:1029380025BF2E84BA871307F00F8D836310E60C2A
:10294800C9CF81461305F00F3707400051BF130563
:10295800F00F014771B77D17B3F6E700368536C02B
:10296800EF00D03F82466D15B396A60063409506EA
:10297800058D93071500130700021D8F3397E60096
:10298800B3D7F6003337E000D98F014613F7770045
:1029980015F33DB7639707144DD72E84BA878D83F7
:1029A80045B729C233069540FDE4C9D79305F6FF1C
:1029B800638C05101303F00FE30266FE2E86ED45C7
:1029C80063D5C512930717002A86EDB5B70700FC33
:1029D800FD173386A440F58F55BFA2861305F00F67
:1029E8000147FDBD138614009375E60FCDEDE5E8AC
:1029F80063830712631307128D830146A60713D753
:102A080097001375F60FA286E1BD9306F00FE30653
:102A1800D5F8B7060004D58F6D438546634DC300CE
:102A280093060002918EB396D70033D6C700B3370A
:102A3800D000B366F600B307D740AA842E8495B5B4
:102A4800B386E74037060004758E3DEA81FA814671
:102A58000145014771B593050002918DB315B70083
:102A68003357C7003336B000518FBA973707000481
:102A78007D8FE30D07E2138614001305F00F01475D
:102A8800E300A6E6B706007E13D71700FD16858B70
:102A9800758FD98FE5BD9305F00FE301B5F0B70544
:102AA8000004CD8F29BF9305F00FE302B6EA3E97E5
:102AB8009357170093F67700E39E06DE8D833DBF9C
:102AC800B306F7402E8459BDBA97370700047D8FA7
:102AD8000946854445FBD9BB998F8544D9B3E38F13
:102AE80007EAE31007E68D83A1BD93050002918DE7
:102AF800B395B700B3D7C7003336B000D18FBA97B4
:102B0800AA84ADB729D72E84BA87FDB5B307F74095
:102B18002E84854479B3BA87C5B5BA97B706000439
:102B2800FD8E0146C1DE370700FC7D17F98F05468B
:102B38008D83E9B5AA8701DD8D83C9B51356750163
:102B4800370780007D1793D675011376F60F1303A8
:102B5800F00FB372A7009357F5016D8F13F5F60FB9
:102B6800FD8163066602630A650005EE11E929CB5B
:102B7800639F0204B9C92E858280094501EB19E2D9
:102B8800E38A02FE638BB7020545A1E38280639C5A
:102B98000202E31BC5FE094575FBE397B7FE014535
:102BA80082807DD1E392B7FEE340C5FE6347A6006D
:102BB800E36C57FC0145E3FBE2FC81CB3E85828058
:102BC800E39402FC8280094582807D558280E381FE
:102BD800B7FE5DBF011126CA9354750113169500FF
:102BE80006CE22CC93F4F40F25829356F501638721
:102BF80004109307F00F6388F4100E06B70700045B
:102C08005D8E938414F80147814293D7750113941C
:102C1800950093F7F70F2580FD81E9C71305F00F9D
:102C2800638FA704938717F8370500040E04498CAF
:102C38003385970093041500294326C08147634CC8
:102C4800E30E33C3B60089469A8363C9E6047D1749
:102C5800854563E9E514638ED70A05471E836391AA
:102C6800E70681478143F240624413957701336553
:102C780075007E03D2443365650005618280138543
:102C8800F40F49CC9384041033C3B60026C01367ED
:102C98003700A9449A8363C6E4208D478546339755
:102CA800E6009376075399CE89476384F2068D47E9
:102CB8006384F2029687054732841E83E383E7FA2A
:102CC8000245A1A29376072481EA1377870879CB76
:102CD800AE832286BE82C9BF01439307F00FB703B4
:102CE800400051B759E02685930415001367170073
:102CF800294326C08547E356E3F435A821E6114762
:102D08008144854219B715EA21479304F00F894297
:102D1800EDBD1E839307F00F8143B1B7938704106D
:102D28003EC0136727002943B9438947E35BE3F0B3
:102D38002D47E38FE3F8B68385BF31479304F00F3F
:102D48008D42E1B532852EC436C232C0EF00100183
:102D580002469307B5FF9304A0F89246A24533169E
:102D6800F600898C014781424DB5228532C816C6C6
:102D78003AC42EC236C0EF00607E9307B5FF338594
:102D8800A4401305A5F82247930415008246294359
:102D980026C03314F4009245B24242468147E352BA
:102DA800E3EA51BFC1631387F3FF935606019352B9
:102DB8000401798E618FB305C7023387E60293D782
:102DC80005013386C2023A96B297B386560263F378
:102DD800E7009E9641667D1633F7C700F18D4207DE
:102DE8002E971316670013D407016983B337C00001
:102DF8003694D98F1A045D8CB7070008E18F91C704
:102E080002459357140005885D8C9307F5076350B6
:102E1800F0041377740019C71377F400914663031D
:102E2800D700110437070008618F19C7B70700F8E2
:102E3800FD177D8C930705081307E00F634AF70415
:102E48009313640093D3930093F7F70F29BD0547B5
:102E580099C71D8FED4681478143E3C6E6E0130518
:102E6800E5093315A400B357E4003337A000D98F20
:102E780013F7770019C713F7F70091466303D700D4
:102E88009107370700047D8F01CB85478143E1BB5C
:102E98009307F00F8143C1BB9A0793D397008147EB
:102EA800D9B33D450143B7034000E30EA7DAAD436C
:102EB8008D47BDBD37078000411193D675017D1739
:102EC800B377A70022C46D8F1354F50126C206C636
:102ED800935475011303F00F13F5F60F93F4F40FE1
:102EE800A2868E07FD81131637006303650493C518
:102EF80015003387A440630FB4006356E03035E112
:102F0800630C06149306F7FF638E0628630F6702A7
:102F18003687A9A86355E0306DC963886402B70590
:102F280000044D8EED4563DFE512850726878DA8E1
:102F3800138714F045E693C515006301B40E630AC0
:102F48000718638604102E84B2878D839376140045
:102F58001305F00FBDCB81461305F00FB7074000EE
:102F6800ADA0E38464FEB7060004558EED458546A2
:102F780063CDE50093060002998EB316D60033564A
:102F8800E6003337D000B366E600958F37070004B4
:102F9800B3F6E7006391061093F677002687CDCE47
:102FA80093F6F70011466383C6009107B70600043D
:102FB800FD8EDDC205071306F00F93761400630833
:102FC800C70C9A071375F70FA583B24022445E0514
:102FD8005D8DFE069244558D41018280E311B4F661
:102FE80031C3639F041A1307F00FB5C79305F7FFA2
:102FF800638705121303F00F6304671A6D4763595B
:10300800B71A930716002A8761BF39C69305F7FFD9
:1030180063870510E30B67F22E8729B701C7E1D450
:10302800814725B7138714009375E70F6394051438
:10303800639704166385071A6315061A8D8301477B
:10304800A607A5831375F70F93761400BDBF130762
:10305800F00FFDE72E84B2879306F00F8D83E30708
:10306800D7EEF9BF93050002998DB315B600B335B5
:10307800B0003356E6004D8EB297370700047D8FB7
:1030880001DF138714001306F00F6312C70A130534
:10309800F00F81471DBF7D177D8F3A853AC07D2986
:1030A80002476D15B316A70063499504058D93076C
:1030B8001500130700021D8F3397E6003337E00031
:1030C800B3D7F600D98F014793F67700E39A06EC59
:1030D800F1BD138714001377E70F1DE7CDE8E5CF9F
:1030E80031DE3387C740B7060004F98E63880610BF
:1030F800B307F64001472E84C1BFB70700FCFD1790
:103108003387A440F58FC9B73387C740B706000493
:10311800F98ED1E259F38146014581477DB5B297D1
:10312800B7060004FD8E09478544E38706E637069F
:10313800007E93D617007D16858BF18ED58F69B7E3
:103148009306F7FFC1C61303F00F2E84630A6704C2
:10315800ED45054763CCD50013070002158F33975B
:10316800E700B3D6D7003337E000558FB307E64002
:10317800AA8429BD9305F00FE30BB7F03E96935749
:10318800160093F67700E39D06E08D8355BD91EF19
:10319800E30306DC4DBB3307F6402E84FDBD91E703
:1031A800B28765B3918F8544D5B3E30006DA65B37A
:1031B800130700020D8F3397E700B3D5B700B33775
:1031C800E000DD8DB387C500AA8445BDB307F6408E
:1031D8002E84854465BB21D22E84B28785B5B287FB
:1031E800B1BDB297B7060004FD8E0147D9DE370797
:1031F80000FC7D17F98F8D83054799B509DFBA87DC
:103208008D83014735BDE30607ECB3069540368745
:10321800E38104E437070004D98F2E8415BFE30344
:1032280007E0B305954099E02E87C1B3370700043E
:10323800D98FE9B313577501370680009307F6FF56
:103248001377F70F9305E007B3F6A7009357F50137
:10325800014563D3E50091C382809307E0097D555A
:10326800E3CCE7FE93055009B3E7C60063D7E50052
:103278001305A7F63395A700828013056009198DF9
:1032880033D5A7008280511106C422C226C021C1AD
:103298001357F541B344A700998CAA87268513D400
:1032A800F7016D2CAA861305E009B307D54013076B
:1032B8006009634BF7022147638BE608138586FF95
:1032C8003397A4002607258313F5F70F21A001449F
:1032D80001450147A2409317F40112445E05598D38
:1032E80082445D8D31018280130790096344F7049D
:1032F80015471386B6FF6384E600B394C400370607
:1033080000FC7D1693F5740033F7C40099CDBD8891
:103318009145638CB4001107B7050004F98D91C578
:103328001305F009718FB307D5401A07258313F5E4
:10333800F70F4DB71387B60115463397E400158E7E
:1033480033D6C4003337E000B364E6004DBF1397AB
:103358009400258313056009B5BF9357750193F74A
:10336800F70F41119386170022C41317950006C65C
:1033780093F6E60F25831354F5018DC29356370053
:103388009387073876071315F401B2402244D20711
:10339800D58FC98FBE853A85410182808DEB21C7C3
:1033A8003A853AC0652AA947024763C5A704AD46CE
:1033B800898E93075501B356D7003317F700930743
:1033C8009038B206898FB18293F7F77F6DBF19CF16
:1033D80093563700B7070800DD8EB2067607B1822C
:1033E8009307F07F4DB78147814671BF9307F07F00
:1033F800814651BF930655FFB316D7000147C1B7A1
:1034080093D7450193F7F77F9396C5001387170065
:10341800A5821356D5011377E77FFD81558E1313C7
:10342800350005C3938607C81307E00F6353D70415
:103438009307F00F0147DE0733E5E700FE054D8DE2
:1034480082803367660081EB2DCB014726072583F1
:1034580093F7F70FCDB79307F00F71DF9307F00FCE
:1034680037074000DE07814533E5E700FE054D8D4F
:103478008280635CD004131765003337E0000E06C2
:103488001353D301518F3367670093777700F1C3E4
:103498009377F7001146638EC70A1107B707000430
:1034A800F98FD5C39387160093F7F70F0147DE0707
:1034B80033E5E700FE054D8D828081470147DE0731
:1034C80033E5E700FE054D8D82802557E3C7E6FE0C
:1034D800794737058000158FFD42498E63DFE20288
:1034E8007955B306D54013050002B356D6006308D4
:1034F800A700938727CA3316F6003363C300333710
:103508006000558F93777700B1C39377F7009146A2
:103518006399D7020D83814715BF938727C8B316D0
:10352800F300B336D000B317F600D58F3357E30056
:103538005D8F937777008146A1FF0D837D15698F95
:10354800DDBD110781460D83B68709B71A072583A4
:10355800DDB51A07258393F7F60FF1BDC1676375CB
:10356800F5029337051093C717008E07130700025B
:103578001D8F3355F500970700009387A72FAA974B
:1035880088233305A7408280B7070001637FF500D1
:10359800C1473355F500970700009387A72DAA97D1
:1035A800882341473305A7408280E1473355F5001A
:1035B800970700009387072CAA978823214733058C
:1035C800A7408280511122C217D4FF1F032484AA66
:1035D8001C5C06C48DEB61458D28B737CDAB08DC84
:1035E8009387E7301CC1B7176DE6938747235CC103
:1035F800B7E705009387C7EE1CC5AD475EA505472D
:10360800814718C95CC9105CB786954CB7F5515805
:10361800184A5C4A9386D6F29385D542B305B70219
:10362800A2401244B387D7023305D702AE97333787
:10363800D702BA97130715003335A7003E9548CA35
:1036480018CA0605058131018280AA8517D5FF1F92
:10365800032545A289A8411126C297D4FF1F938448
:10366800E4A1984022C406C62AC02E8401E78145F9
:10367800892288C00245A285FD54252A6319950030
:103688007D54B24022852244924441018280130431
:1036980035007198E30785FEB305A4400245112A59
:1036A800E31195FEF1BF938735003111F19B26C4D4
:1036B80006C822C62AC093848700314763F8E40607
:1036C800B14463E7B4060245092A1383C18003277E
:1036D80003003A843DE40245A685B53F7D572A8418
:1036E8001383C1806315E50C0324030022875DE77B
:1036F80018400245814522973AC26528124763124D
:10370800A70A1C40938534009D8DF1999384850008
:10371800B14763F3F400B1440245A6852D3FFD5738
:103728006301F5081C40A6971CC02DA8E3DB04F82C
:103738000247B1471CC30145C2403244A24451016B
:1037480082801040058E63480604AD4663FDC602BC
:1037580004C0B3069400631687022320D3005C409C
:1037680090C2DCC20245AD281305B400930744009B
:1037780061993307F540E301F5FC3A94898F1CC041
:1037880065BF54C3E9BF5C40631587002320F3007D
:10379800D1BF5CC3C1BF228740402DBF3A84584384
:1037A800B9B70247B1471CC33A851D2869B704C198
:1037B80055BF511122C22A842E8523A8018006C430
:1037C800EFD06FB7FD576316F50083A7018191C34A
:1037D8001CC0A2401244310182801385418121A07E
:1037E8001385418111A08280828000000000003F83
:1037F8003333333F000048430000484200000000D4
:10380800000000000000F03F9A9999999999A93F02
:10381800666666666666EE3F0000000000408F4000
:10382800666666666666D63F0000000000002440B3
:1038380072DCFFFFF8DAFFFFD8DAFFFFDEDBFFFFFD
:10384800D8DAFFFF02DBFFFFD8DAFFFFDEDBFFFF7E
:10385800F8DAFFFFF8DAFFFF02DBFFFFDEDBFFFF2E
:103868003CDCFFFF3CDCFFFF3CDCFFFF02DBFFFF33
:10387800000102020303030304040404040404040F
:1038880005050505050505050505050505050505E0
:1038980006060606060606060606060606060606C0
:1038A80006060606060606060606060606060606B0
:1038B8000707070707070707070707070707070790
:1038C8000707070707070707070707070707070780
:1038D8000707070707070707070707070707070770
:1038E8000707070707070707070707070707070760
:1038F8000808080808080808080808080808080840
:10390800080808080808080808080808080808082F
:10391800080808080808080808080808080808081F
:10392800080808080808080808080808080808080F
:1039380008080808080808080808080808080808FF
:1039480008080808080808080808080808080808EF
:1039580008080808080808080808080808080808DF
:1039680008080808080808080808080808080808CF
:1039780001020304050607080102030405060708F7
:10398800006CDC029800002000000000000000002D
:10399800000000000000000000000000000000001F
:1039A800000000000000000000000000000000000F
:1039B80000000000000000000000000000000000FF
:1039C80000000000000000000000000000000000EF
:1039D80000000000000000000000000000000000DF
:1039E8000000000000000000180000200000000097
:00000001FF
